:020000040800F2
:10000000C03B0120C1020008CB310008D52C0008FC
:10001000C9310008671300087933000800000000A8
:10002000000000000000000000000000CF310008C8
:100030006913000800000000CD310008D13100082C
:10004000DB020008DB020008DB020008DB0200081C
:10005000DB020008DB020008DB020008DB0200080C
:10006000DB020008DB020008DB020008DB020008FC
:10007000DB020008DB020008DB020008DB020008EC
:10008000DB020008DB020008DB020008DB020008DC
:10009000DB020008DB020008DB020008DB020008CC
:1000A000DB020008DB020008DB020008DB020008BC
:1000B000DB020008DB020008DB020008DB020008AC
:1000C000DB020008DB020008DB020008DB0200089C
:1000D000DB020008DB020008DB020008DB0200088C
:1000E000DB020008DB020008DB020008DB0200087C
:1000F000DB020008DB020008DB020008DB0200086C
:10010000DB020008DB020008DB020008DB0200085B
:10011000DB020008DB02000879320008DB0200087D
:10012000DB020008DB020008DB020008DB0200083B
:10013000DB020008DB020008DB020008DB0200082B
:10014000DB020008DB020008DB020008DB0200081B
:10015000DB020008DB020008DB020008DB0200080B
:10016000DB020008DB020008DB020008DB020008FB
:10017000DB020008DB020008DB02000800000000D0
:10018000DB020008DB02000800F002F800F06EF865
:100190000AA090E8000C82448344AAF10107DA45E2
:1001A00001D100F063F8AFF2090EBAE80F0013F0C6
:1001B000010F18BFFB1A43F001031847C4100300D6
:1001C000E41003000A444FF0000C10F8013B13F058
:1001D000070408BF10F8014B1D1108BF10F8015BA0
:1001E000641E05D010F8016B641E01F8016BF9D193
:1001F00013F0080F1EBF10F8014BAD1C0C1B09D1EA
:100200006D1E58BF01F801CBFAD505E014F8016B5B
:1002100001F8016B6D1EF9D59142D6D370470000ED
:100220000023002400250026103A28BF78C1FBD8FF
:10023000520728BF30C148BF0B607047642900F0E7
:100240004181732900F07283002070471FB52CF0A4
:1002500057FC9DE8030000F07BFE00F084F900F0FD
:1002600083FB1FBD10B500F0E8FB10BD00F04BFC98
:100270001146FFF7EBFF22F0C2F800F03BFE03B49B
:10028000FFF7F0FF03BC00F0DDFF00000B49D1F8E1
:1002900000C04A685CF8043B1068184442F8040B3C
:1002A0008C4528BFA1F1DC0C8A4228BFA1F1DC02F9
:1002B000C1F800C04A6020F0004070475CF80020A0
:1002C0000948804709480047FEE7FEE7FEE7FEE7EA
:1002D000FEE7FEE7FEE7FEE7FEE7FEE70448054926
:1002E000054A064B70470000693200088901000882
:1002F000C0F90020C03B0120C0FB0020C0FB002053
:1003000053EA020C00F069802DE9F04B4FF0000633
:10031000002B1FBFB3FA83F503FA05F424FA05F6A0
:100320005E4012BF1643B2FA82F502FA05F4C5F137
:1003300020051EBF22FA05FC44EA0C04203556EACB
:10034000044C4FEA144418BF641C4FF000084FF0EF
:100350000009904271EB030C39D3002919BFB1FA9F
:1003600081F701FA07F6B0FA80F700FA07F6C7F14D
:1003700020071EBF20FA07FC46EA0C062037B6FB12
:10038000F4FCA7EB0507103F07F01F0BCBF120068D
:100390000CFA0BFB2CFA06F644BFB3460026202FBE
:1003A000A4BF5E464FF0000B5BEA060C08BF4FF09F
:1003B000010B19EB0B09ABFB027C48EB0608C01BD9
:1003C00006FB02CC0BFB03CC71EB0C01C1E70B4627
:1003D000024641464846BDE8F08B13B54FF0000099
:1003E0004FF00001AFF30080BDE81C4070470000F3
:1003F0000FB4044910B503AA029800F09BFA10BC90
:100400005DF814FBB8F800202DE9F0410E460446D3
:10041000002020622046E168884730B3252805D0B7
:10042000D4E901219047206A401CF2E7E1682046A8
:1004300000278847050018D0A5F14100192802D8E7
:1004400020354FF400673246294620462760FFF7E3
:10045000F5FE40B1012804D0F61D26F00706083647
:10046000D8E7361DD6E72846DAE7206ABDE8F081EE
:1004700070B50C460546012A05D02878800600D5BF
:10048000EA69002302E0012305E05B1C934202D2EB
:10049000E05C0028F9D1A869E618C01AA861286AAA
:1004A000184428622846AFF3008004E0D5E9012112
:1004B00014F8010B9047B442F8D32846AFF30080FC
:1004C00070BD00002DE9F041064600241068752932
:1004D000314616A510D0AFF30080002802DA404262
:1004E00013A507E031688A0701D512A502E0490784
:1004F00004D511A5012401E0AFF3008000210A22F8
:1005000006F1240709E0B0FBF2FCB0FBF2F302FBBA
:100510001C00303078541846491C0028F3D123467B
:100520002A463046BDE8F04100F07CB900000000EA
:100530002D0000002B000000200000000B4910B52A
:10054000A1F17C020A4CC2E93712372106E000EB28
:10055000104342F82130074B00FB03400B1EA1F172
:100560000101F4DC10BD0120E8E70000FCF70020E9
:10057000E119D666CD0D010040EA010310B59B07D5
:100580000FD1042A0DD310C808C9121F9C42F8D0FD
:1005900020BA19BA884201D9012010BD4FF0FF30AE
:1005A00010BD1AB1D30703D0521C07E0002010BDC4
:1005B00010F8013B11F8014B1B1B07D110F8013B50
:1005C00011F8014B1B1B01D1921EF1D1184610BD31
:1005D00040EA0103024630B59B0710D14FF00134C9
:1005E00000E008C208C91D1B9D4315EAC41FF8D0CE
:1005F00013F0FF0102F8011B0DD01B0AF8E711F8F8
:10060000013B002B02F8013B05D011F8013B002B08
:1006100002F8013BF3D130BD10B5431C02E010F8E5
:10062000011B71B18107FAD14FF0013202C88C1A57
:100630008C4314EAC211F9D0C01A0A0603D0C01EB6
:1006400010BDC01A10BD0A0401D0801E10BD0902E1
:10065000FCD0401E10BD032A40F2308010F0030C85
:1006600000F0158011F8013BBCF1020F624498BF05
:1006700011F801CB00F8013B38BF11F8013BA2F1A2
:10068000040298BF00F801CB38BF00F8013B11F01D
:10069000030300F02580083AC0F0088051F8043BBD
:1006A000083A51F804CBA0E80810F5E7121D5CBF2A
:1006B00051F8043B40F8043BAFF30080D20724BF5D
:1006C00011F8013B11F801CB48BF11F8012B24BFF1
:1006D00000F8013B00F801CB48BF00F8012B704740
:1006E00010B5203AC0F00B80B1E81850203AA0E8CD
:1006F0001850B1E81850A0E81850BFF4F5AF5FEA01
:10070000027C24BFB1E81850A0E8185044BF18C9B3
:1007100018C0BDE810405FEA827C24BF51F8043B5A
:1007200040F8043B08BF7047D20728BF31F8023BAE
:1007300048BF11F8012B28BF20F8023B48BF00F842
:10074000012B70474FF0000200B5134694469646C1
:10075000203922BFA0E80C50A0E80C50B1F12001D4
:10076000BFF4F7AF090728BFA0E80C5048BF0CC082
:100770005DF804EB890028BF40F8042B08BF7047E0
:1007800048BF20F8022B11F0804F18BF00F8012B52
:10079000704700004FF0013C50F8042B51F8043B27
:1007A0009A4221D1A2EB0C03934313EACC1317D145
:1007B00050F8042B51F8043B9A4215D1A2EB0C03DC
:1007C000934313EACC130BD150F8042B51F8043B9C
:1007D0009A4209D1A2EB0C03934313EACC13DBD06A
:1007E0004FF00000704700BFD01A01BAB1FA81F192
:1007F00001F0180122FA01F0CB40C1F12001DBB277
:10080000C0B2C01A2CFA01F3D11A914311EAC311F4
:10081000E6D1704770477047704700000048704746
:1008200060F900202DE9F0470D46994692460446AE
:1008300000F124080168880604D5E06921F0100160
:10084000216000E00120A84201DD471B00E00027F5
:10085000A1697A1902EB0900081AA0612078C00684
:1008600002D42046AFF30080002608E0D4E901213D
:100870001AF806009047206A401C761C20624E45FC
:10088000F4DB2078C0060AD52046AFF3008006E0EE
:10089000D4E9012130209047206A401C2062381E94
:1008A000A7F10107F4DC07E0D4E9012118F80500FD
:1008B0009047206A401C2062281EA5F10105F3DC48
:1008C0002046AFF300802078000602D50220BDE864
:1008D000F0870120FBE7000001694A1C02610878EB
:1008E000704700B58FB0CDE9013100210591054970
:1008F0007944CDE9031011466846FFF785FD0FB036
:1009000000BD0000E5FFFFFF10B5436913B1AFF371
:10091000008001E0FFF7ACFD012010BD127800F16E
:1009200024010A7000224A700122EDE711684FF09D
:10093000FF32E9E7074B70B50D467B44FFF7D1FF67
:100940000446284600F00CF810B14FF0FF3070BD9F
:10095000204670BD53EB00000048704760F900204E
:10096000007B00F08000704710B542485421FFF72B
:10097000E9FE41485421FFF7E5FE40485421FFF7C6
:10098000E1FE3F493B483C4A3F4B08603D490A6015
:100990003A491960531C0365481C1065012008651D
:1009A0003B48344A39A1784400F008FA20B9384865
:1009B00078440A3800F0A7FA37482F4A35A178441E
:1009C00000F0FCF920B9344878440A3800F09BFA6A
:1009D00032482A4A2FA1784400F0F0F920B92F4874
:1009E00078440A3800F08FFA40232248DC000021C6
:1009F000224600F0BFF920B125487844543800F071
:100A000082FA1D4822464023002100F0B3F920B1AC
:100A100021487844543800F076FA184822461023CA
:100A2000002100F0A7F9002806D01C487844BDE852
:100A30001040563800F067BA10BD104870B5006D10
:100A400020F001040B4800F02FFA0B4800F02CFABC
:100A50000A4800F029FA09E0206D20F0010520463F
:100A600000F022FA204600F073F82C46002CF3D157
:100A700070BD000064F80020B8F800200CF90020D8
:100A8000E4020020E8020020EC02002072000000D6
:100A9000EA02030077000000D6020300C20203004E
:100AA0000EB5CDE90001FFF7B7FD029069460120C0
:100AB000ABBE0EBD08B5694600900220ABBE08BDB6
:100AC0001FB58DE8070069460520ABBE04B010BD18
:100AD0001FB58DE80F0069460620ABBEF6E708B5E6
:100AE000694600900920ABBE08BD1CB5CDE90001E8
:100AF00069460A20ABBE1CBD704708B56946009028
:100B00000C20ABBE08BD7546FFF726FFAE460500BC
:100B10006946534620F00700854618B020B5FFF718
:100B2000DDFBBDE820404FF000064FF000074FF01E
:100B300000084FF0000B21F00701AC46ACE8C009FB
:100B4000ACE8C009ACE8C009ACE8C0098D46704704
:100B500070B50446051F00F0DFF90068002C14BFD3
:100B6000446870BD002C18BFAC423CBF204664688E
:100B7000F8D301680A18AA4218BF456003D12A6851
:100B800005461144016028684119A1421CBF6C60F0
:100B900070BD6168696021680844286070BD2DE9F6
:100BA000F04705460C46C86820F4201040F4800049
:100BB000C860800602D5084600F0FBFAE06841F202
:100BC00082014FF0FF390140022903D0204600F096
:100BD00099FAB5E000F42041B1F5004F0FD1C00300
:100BE00006D56168E06A884200D80846606006E081
:100BF0002069E06260606069FFF77FFFA061A06824
:100C00000022EEB200280DDAE1688B050AD4C04359
:100C1000A06041F490302260E0606068411C616037
:100C20000670A5E0E0689046226040F40050E06065
:100C3000206968BB6069FFF752FF012704F12405B2
:100C4000A0B1A08910F4407F08D0E06900F0AFF9AE
:100C5000206118B1E06840F4006016E0E7612561AA
:100C6000E06820F4407040F480600EE0E06900F03D
:100C70009EF900282061F1D0E06840F4006010F493
:100C8000407FE06002D140F48070E06020696060E5
:100C9000E06825696FF0010AC1051FD56168E06A47
:100CA000884200D80846411B04D02246284600F05E
:100CB00033FAF0BBE068010203D5E562C4E90158EC
:100CC00054E0691CE1626160E16940F48030491ED2
:100CD000C4E9021030462E70BDE8F087010202D54B
:100CE00000F480320AE06068411C61600670E068D0
:100CF0000A2E40F48030E06006D00022E16A60688D
:100D0000814203D90B4602E00122F7E70346A78997
:100D10005B1B7F0503D4E7699F4200DDE2B181429E
:100D200000D80146E5620F1AC4E90158002B09DD1D
:100D300000E005E022461946284600F0EDF908B12A
:100D40004846C9E747B1A069E5626560C01BA0617C
:100D5000E06840F01000E060E068000208D56168DB
:100D6000A069E562491B08446560A0615046B3E78D
:100D70003046B1E770B5C468A50713D0650211D439
:100D8000B2F5807F09D0B2F5007F06D0B2F5806F52
:100D900008D1012300F1240106E05D1E6FF07F46BB
:100DA000B54201D3012070BD0161C361416024F4EB
:100DB00070611143C160002070BD00002DE9F04159
:100DC0000C4607461646104600F06EF82078611C67
:100DD00061280AD0722802D077283CD102E0012590
:100DE000002405E00225042402E0082448F202055C
:100DF00011F8010B2B2806D0622809D011F8010C3C
:100E000074280AD00BE045F0030544F00204EFE734
:100E100045F0040544F00104EAE744F010043846C4
:100E20002146FFF73DFE411C15D000213161716064
:100E30004FF40071F560F1617061200704D5304610
:100E40000222002100F0E2F8306D40F00100306530
:100E50003046BDE8F0810020FBE72DE9F0410D466A
:100E60000646104C206DC10704D0410804D020F084
:100E70000104F7E722460EE0542000F098F807003E
:100E80000ED0206D47F001010843542120653846FB
:100E9000FFF758FC3A4629463046BDE8F0418DE759
:100EA0000020D6E764F800202DE9F04704464FF013
:100EB00000094FF0FF37C568D4E90486A80707D0BA
:100EC000204600F053F93046FFF7F4FD002802DA1F
:100ED0003846BDE8F087280502D54046FFF738FEC2
:100EE0004C212046FFF72EFC206D20F001002065EC
:100EF0004846EEE710B50446AFF300802046BDE853
:100F00001040FFF7BCB910B500F07AF9BDE8104009
:100F100000F070B9704700000048704768F9002081
:100F2000704770477047704738B504460A4600203E
:100F30006946AFF30080002808BF38BD024600991B
:100F4000204600F08CF9012038BD012000F072B974
:100F5000F8B5AFF30080054600200C46102000BF16
:100F60000646A819A0420DD9324669460020AFF3C3
:100F70000080070008BF00F05DF90098A04218BF8C
:100F80000546C419FFF7C8FF05600746F01D20F0AD
:100F900007004619284600F05BF9B44208BFF8BDC7
:100FA000A21B31463868BDE8F84000F058B970B56A
:100FB0000646FFF7B1FF056806F10B0020F00704B5
:100FC000B4429CBF002070BD2B466A68BAB110685D
:100FD000A04210D304F1080188423CBF5068586019
:100FE00007D35168101941601168091B01605860EE
:100FF0001460101D70BD13465268002AE7D12146C7
:101000002846FFF791FF0028DED170BD2DE9F041A1
:10101000044616460D464769007B80072ED03846A9
:10102000FFF75DFD50BB3EB3012E02D0022E25D14D
:1010300004E0204600F02DF905441DE03846FFF796
:101040005CFDE168002841F01001E16005DA20460E
:1010500000F058F80120BDE8F081C9030BD56268A3
:10106000E16A914200D81146A26911442269891AA5
:10107000814200DD08460544002D01DA0220EAE73E
:10108000E16A6068E268814206D29103E06203D5BA
:1010900022F4003141F01002A6690027AE4213DCB1
:1010A000E16A814201D90B4600E0034603EB060CDE
:1010B0002369ACEB030CAC4506DD814201D98C46BB
:1010C00000E084469C4505D1A760276042F02000DF
:1010D000A5620DE0AD1BE669AE1B8142A66000D99A
:1010E0000846C01A281A20605819606022F02000B3
:1010F00003490840E060002084F84870ABE7000036
:10110000BFCFD7FFC16821F4001141F08001C16059
:1011100000218160016070472DE9F0478146144647
:101120000E464FF0FF383248D5685769054209D05E
:101130003846A169FFF7D9FC002811DB2C48C043D1
:101140000540E5602B46324649463846FFF7B8FC75
:10115000A16920F00042B21A11440028A16103D015
:101160002046FFF7CFFF4046BDE8F08770B5044644
:101170000569C06A6168884200D80846E16821F4C0
:101180002011E160C90312D5A84208D02246411BB4
:101190002846FFF7C1FF10B14FF0FF3070BD0020AF
:1011A000E562C4E90150E06820F48030E06000208E
:1011B00070BD10B50446C06820F02000E060A16A50
:1011C000A06988420DD02046FFF7D0FFE06820F4E8
:1011D000405040F01000E060A06AA0612069E06229
:1011E000606044F24001E0688843E06010BD0000A8
:1011F00010000200002801D000F024B87047000061
:1012000010B5014602A000F065F8012010BD0000F5
:1012100053494752545245443A20526564697265B5
:1012200063743A2063616E2774206F70656E3A2094
:101230000000000010B500F067F8BDE81040FFF7AF
:10124000D9BF000001491820ABBEFEE7260002000E
:1012500000210160C0E9011070471020704703466B
:1012600040688C46002818BF88423CBF034640684F
:10127000F8D318681844884207D00CF1030020F016
:101280000700001D411A521A0146081D0A60FFF7A7
:101290005FBC10B50146C268900703D0900607D521
:1012A000886A0AE0FFF7BAFA01210160881E10BDC2
:1012B0008B69486818440B69C01A91F848301BB113
:1012C00091F84910401A10BD1103FCD50028FADD31
:1012D000401E10BD70B505460C460A2000E06D1C8E
:1012E00000F03AF835B128780028F8D102E0641C03
:1012F00000F032F814B120780028F8D1BDE8704031
:101300000A2000F029B8000010B5012805D00021FE
:1013100003A0FFF7DFFF012010BD09A1F8E70000DF
:1013200053494752544D454D3A204F7574206F66CE
:101330002068656170206D656D6F72790000000036
:101340003A2048656170206D656D6F727920636F1A
:10135000727275707465640008B569468DF8000096
:101360000320ABBE08BDFEE770470000064908B584
:1013700009684FF4FA52B1FBF2F14143009100BF0A
:10138000491E0091FBD208BD1C00002038B5044660
:10139000006800F58050816941F480118161206806
:1013A00000F58050806900900120FFF7DFFF206882
:1013B000009900F58050816138BD00002DE9F041B1
:1013C000044621B14FF40060E060C000A060E06915
:1013D0000025002861D028462368402619683A4A2B
:1013E0001140D4E902273A43024342F40070084313
:1013F000186020680768012000F098F820680760EE
:101400002068466020684668012000F08FF8206858
:101410004660206885602068C560216888694FF64D
:101420004172104040F08000886120688669012088
:1014300000F07CF8206886612068C5612068C56975
:10144000012000F073F82068C561226802F580521F
:1014500090691E4908401E4901439161206800F5CA
:1014600080508569012000F061F8206800F5805007
:1014700085612068174900F580500160206800F5FB
:1014800080500568012000F051F8206800F5805078
:101490000560A069012803D009E04FF480609BE754
:1014A000206800F58050C1690B4A1143C161606931
:1014B0000A4982880A640278D0F8010042EA0020D2
:1014C0004864BDE8F08100000F8120FF233FDEF873
:1014D000040020028020C102400001000080024080
:1014E00072B6FEE7002200F001B8000030B50E4BE6
:1014F000054601205C7A002C14D1587A1C54587A85
:1015000003EB800045605D7A03F108002A54587AA5
:10151000421C5A72303008703A2048702F20887070
:10152000CC70002030BD0000B090002070B50446A3
:1015300000F002FD0546601C02D004480078044417
:1015400000F0FAFC401BA042FAD370BD100000204E
:101550002DE9F041054690F845000C46012875D06C
:10156000012685F84560022085F84400002C70D0E3
:101570002A68116841480140D4E900031843D4E9BE
:1015800002373B431843AB68184323691843636928
:101590001843EB681843A3691843E3691843236AA7
:1015A0001843636A1843A36A184308431060286805
:1015B00007680120FFF7BAFF28680760D4E90B012C
:1015C0000843D4E90D1211430843E16B0843216C31
:1015D0000843616C0843A16C084329684860286887
:1015E00047680120FFF7A2FF286847602968E06C80
:1015F00088602968206DC8602A6891694FF641703B
:101600000140D4E916031843B4F85470236E43EA3A
:1016100007431843636E1843A36E18430843906151
:10162000286887690120FFF781FF28688761D4E96E
:101630001B0108432968C8612868C4690120FFF7B5
:1016400075FF2868C46114E000E002E00220BDE8F4
:10165000F0812968086820F49042D5E90203184314
:1016600010430860286804680120FFF75FFF2868BE
:10167000046005F8446F00206870E8E70F8120FFE0
:101680002DE9F04390F845400025012C0DD04FF096
:10169000010C80F845C0022480F8444044F2F4571D
:1016A0004FF000495E1E816217E00220BDE8F08322
:1016B00001EB4514C4F80090C5EBC51808EB4808C9
:1016C00002EB8808C4E90178B54204D204F120088D
:1016D000C4F80C8000E0E1606D1C9D42E8D3026814
:1016E00002F58052D16080F844C0002180F8451096
:1016F0000846DBE72DE9F043914690F845200024A9
:10170000012A0AD0012680F84560022280F8442090
:101710004FF4801C5D1EC1621BE00220BDE8F08317
:1017200001EB4412C2F800C0C4EBC41707EB470832
:1017300009EB88079760C7691FB9176847F4400726
:101740001760AC4203D202F12007D76000E0D160FD
:10175000641C9C42E4D3026802F58052116180F857
:101760004460002180F845100846D7E72DE9FC4782
:101770004FF000060400B146009603D094F84400F0
:1017800018B107E00120BDE8FC8784F845602046D9
:1017900000F0E2F86648016841F4804101600068A9
:1017A00000F4804001906348016821F40001016069
:1017B0000168226A11430160206800F580500168C9
:1017C00041F00101016000F0B7FB05464FF4FA77E4
:1017D00009E000BF00F0B0FB401BB84203D9032072
:1017E00004F8440F67E0206800F580500068C007E7
:1017F000F0D12068006920F01C0500F067FE4E491A
:101800004E4A0144914202D245F0080516E04C4987
:101810004C4A0144914202D245F00C050EE04A497F
:101820004A4A0144914209D34949084449498842F6
:1018300002D245F0040501E045F01005206805617D
:101840004FF400420021204600F03CFA0125A8BBDD
:10185000FF20FFF76BFE606888B300F06DFB8046E9
:1018600041F288376A460121204600F0E1F800F095
:1018700063FBA0EB0800B84217D800984007F1D5E9
:101880004FF480520021204600F01CFAB0B900F05D
:1018900053FB80466A460121204600F0C9F800F05B
:1018A0004BFBA0EB0800B8420AD901212046FFF704
:1018B00085FD04F8445F0320667064E724E018E0C7
:1018C00000988006E6D56A461021204600F0B0F860
:1018D000D0B90098410703D54FF40061E16000E002
:1018E000E660800701D5A66019E04FF48040A06053
:1018F00015E0E068A168C00840EA510082B200210A
:10190000204600F0DFF930B101212046FFF756FDF7
:1019100084F8445036E740F6FF70FFF707FE49466B
:101920002046FFF74BFD84F8445000202BE70000D1
:10193000443802400438014000D3CEFEC0E1E40048
:1019400040F1E9FD40787D0100796CFC005A6202AB
:10195000001F0AFA80F0FA02F0B587B0044614219D
:101960006846FEF7EFFE2D492068884253D12C4887
:101970000024016841F000710160016801F000710C
:101980000591016841F080610160016801F08061AA
:101990000591016841F000610160016801F000619A
:1019A0000591016841F004010160016801F0040142
:1019B0000591016841F001010160016801F0010138
:1019C0000591016841F0020101600068022500F004
:1019D000020005903220CDE9000502AA03260B275C
:1019E00082E8D00069460F4800F0A8F98620CDE9CA
:1019F000000502AA694682E8D0000B4800F09EF973
:101A00004FF46050CDE9000502AA694682E8D00093
:101A1000064800F093F907B0F0BD000000800240D6
:101A2000303802400008024000000240000402403A
:101A30002DE9F047044690F84400914682281DD0D5
:101A4000822084F84400226810694FF6FF7500F088
:101A50001C03208A05EAC02018434FF4F86303EA08
:101A60008111014321F0020040F00105156100F0F1
:101A700063FA064601274FF4803810E00220BDE8E3
:101A8000F08700BF00F058FA801B404505D304F8EA
:101A9000447F002060700320F1E720680569E807B3
:101AA000F0D12068406981B2C9F8001084F8447010
:101AB0000020E4E7F8B5044690F84500012839D045
:101AC000012584F84550022084F84400206800264F
:101AD000016841F008010160206800680090284614
:101AE000FFF744FC2168009808602068016841F015
:101AF000040101602068006800900120FFF736FCB7
:101B00002168009808602046FFF740FC206800F537
:101B10008050816941F400518161206800F5805056
:101B2000816941F00201816184F8445084F8456084
:101B30000020F8BD0220F8BDF8B5044690F8450035
:101B4000012839D0012584F84550022084F844004A
:101B5000206800F58050816921F40051816120687E
:101B600000F58050816921F0020181612068002622
:101B7000016821F0040101602068006800900120E4
:101B8000FFF7F4FB2168009808602046FFF7FEFB92
:101B90002068016821F00801016020680068009059
:101BA0000120FFF7E3FB21680098086084F84450A7
:101BB00084F845600020F8BD0220F8BDF0B590F82B
:101BC00045200023012A11D0012780F84570022208
:101BD00080F84420002459B1C66A3268002A0ADA23
:101BE000122100F8441F44700120F0BD0220F0BD16
:101BF00000F8447FF7E740F2F455A9420BD9B1FB56
:101C0000F5FCB1FBF5F205FB1C1CBCF1000F00D08C
:101C1000521C012A43D1326842F040523260C26AFB
:101C2000C1F30C015160C16A0A6842F000420A60C7
:101C3000C16AC968C16234E0D6F800C02CF0405CCB
:101C4000C6F800C033B9C66AD6F800C04CF0805C54
:101C5000C6F800C0C66A7560561EB34214D1C66A83
:101C6000D6F800C04CF0005CC6F800C0C2F1010616
:101C7000C6EBC61606EB4606D0F82CC001EB86066E
:101C8000C6F30C06CCF80460C66AD6F800C04CF067
:101C9000004CC6F800C0C66A5B1CF668C662934278
:101CA000CAD3016801F580514A69520705D504225B
:101CB0004A61016801F580514C6000F8447F44702E
:101CC0000020F0BD2DE9F041044690F84400422880
:101CD0001ED0422084F84400236818694FF6FF762E
:101CE00000F01C05208A06EAC02028434FF4F8655E
:101CF00005EA8111014390B241F003055861206863
:101D0000056100F019F9064601274FF4803810E00C
:101D10000220BDE8F08100BF00F00EF9801B4045B5
:101D200005D304F8447F002060700320F1E72068A9
:101D30000569E807F0D184F84470EAE72DE9F84F27
:101D4000DFF8BCA1002201250AF1040B03264FF0A5
:101D50000F090BF1040E00BF0B6805FA02F42340D3
:101D6000A34270D10F7907F00307012F01D0022F92
:101D700016D187684FEA420806FA08FC27EA0C07E2
:101D8000D1F80CC00CFA08FC4CEA070CC0F808C0EB
:101D90004768A7430C79C4F3001494403C43446063
:101DA0000C79E443A4070AD0C4684FEA420C06FA4F
:101DB0000CF7BC438F6807FA0CF72743C7600C7910
:101DC00004F00304022C12D1D40800EB840CDCF8DC
:101DD00020405707FF0E09FA07F824EA0804D1F853
:101DE000108008FA07F848EA0408CCF82080046854
:101DF0004FEA420C06FA0CF7BC430F7907F00307D1
:101E000007FA0CF7274307604C6814F4403F70D082
:101E10003C4C276847F480472760246822F003077A
:101E200004F480440094384C07EB040CDCF80848B8
:101E300097074FEA177809FA08F7BC43334FB842BF
:101E400002D1002724E054E0314FB84201D10127EC
:101E50001EE0304FB84201D1022719E02E4FB842A0
:101E600001D1032714E02D4FB84201D104270FE020
:101E70002B4FB84201D105270AE02A4FB84201D1C1
:101E8000062705E0284FB84201D1072700E00827C0
:101E900007FA08F72743CCF80878DAF800405746E5
:101EA000D1F804C09C435FEACC3C00D51C433C60A5
:101EB000DBF800405F46D1F804C09C435FEA8C3CED
:101EC00000D51C433C60DEF800407746D1F804C0E2
:101ED0009C435FEACC2C00D51C433C60084F0C3778
:101EE0003C68D1F804C09C435FEA8C2C00D51C43AD
:101EF0003C60521C102AFFF42FAFBDE8F88F0000A1
:101F0000003C0140443802400030014000000240E3
:101F10000004024000080240000C02400010024091
:101F20000014024000180240001C02400AB1816106
:101F300070470904FBE70000014880687047000013
:101F40001000002070B5040025D094F83D00002555
:101F500020B984F83C50204600F050F9242084F841
:101F60003D002068016821F00101016020680168DE
:101F700041F4004101602068016821F400410160E2
:101F800000F0AAFA4D4A6168914201D84C4900E03C
:101F90004C49884201D2012070BD4B492368B0FBF7
:101FA000F1F15E6826F03F060E435E60636893427F
:101FB00006D94FF4967359434FF47A73B1FBF3F19A
:101FC0002368491C1E6A26F03F0631431962616886
:101FD000914210D84900401EB0FBF1F2521CC2F3EE
:101FE0000B02042A01D2042022E0B0FBF1F0401CD5
:101FF000C0F30B001CE0A268F2B301EBC10303EBDA
:102000000116431EB3FBF6F35B1C43F480431B0530
:1020100049D092B301EBC10202EB0111401EB0FBAB
:10202000F1F0401CC0F30B0040F4804040F400404D
:102030002168CA694CF6FF739A431043C861D4E91A
:10204000071001432068026822F0C00211430160BA
:10205000D4E9030101432068826848F2FF339A43C0
:1020600011438160D4E9050108432168CA6822F060
:10207000FF021043C86001E00EE016E0206801682E
:1020800041F0010101602564202084F83D002563B2
:1020900084F83E50002070BD01EB4106431EB3FBA7
:1020A000F6F35B1CB3E70120C2E701EB4101401EE0
:1020B000B0FBF1F0401CC0F30B00B7E7A0860100B5
:1020C00080841E0000093D0040420F002DE9FF4FB3
:1020D00083B09A46DDE9119793460446DDF84080C7
:1020E000FFF72AFF054694F83D0020287FD11923E9
:1020F000012240492046009500F07EFE002876D15E
:1021000094F83C00012872D0012084F83C0020683B
:102110000168C90703D1016841F00101016020682D
:10212000016821F400610160212084F83D00402015
:1021300084F83E0000262664C4F82480A4F82A907F
:10214000608D20852C48E062CDE9007553465A46E3
:102150002046049900F0D6FD70B930E02A46394691
:10216000204600F0C8FE58B1206C042804D1206835
:10217000016841F400710160012007B0BDE8F08FF3
:10218000606A216800780861606A401C6062218D85
:10219000491E89B22185628D521E6285226853696B
:1021A000DB435B070BD469B100781061606A401CA7
:1021B0006062208D401E2085608D401E6085208DD0
:1021C0000028CBD12A463946204600F0EFFD0028F2
:1021D000CAD154F83D0B016841F400710160202020
:1021E00004F81E09E67766770020C6E7FFE70220BD
:1021F000C3E70000020010000000FFFF10B586B02A
:10220000044614216846FEF79DFA13492068884267
:1022100020D112480021026842F0020202600068E8
:1022200000F002000590C02000901220CDE90101CD
:10223000032003900420049069460948FFF77EFDBF
:1022400006481030016841F400110160006800F494
:102250000010059006B010BD005400403038024018
:10226000000402400248816802781144816070478E
:10227000100000200B4810B5016841F400710160A6
:10228000016841F480610160016841F4807101607E
:10229000032000F06FF80F2000F006F800F024F89B
:1022A000002010BD003C024070B50D4D04464FF4B7
:1022B0007A712878B1FBF0F00A490968B1FBF0F0B7
:1022C00000F0A6FB48B9102C07D200222146501E70
:1022D00000F030F800206C6070BD012070BD00007F
:1022E000100000201C0000200A4808B5016841F4D5
:1022F00080410160006800F4804000900548001FA4
:10230000016841F080510160006800F08050009049
:1023100008BD000044380240002809DB00F01F021D
:10232000012191404009800000F1E020C0F8001137
:1023300070470000F0B40E4B1B680C46C3F3022339
:10234000C3F10705042D00D90425191D072901D261
:10235000002300E0DB1E012606FA05F1491E21409C
:1023600099409E40761E16403143F0BC01F005B8FE
:102370000CED00E0064900F0070208684FF6FF0385
:10238000184040EA0220034A1043086070470000EA
:102390000CED00E00000FA052DE9F0470E460500BF
:1023A00065D0DFF81481D8F80000F7B200F007001C
:1023B000B04207D288F80070D8F8000000F007009B
:1023C000B04254D128683D4C810712D5400703D54F
:1023D000206840F4E05020602878000703D520688A
:1023E00040F4604020602068A96820F0F0000843B5
:1023F00020602878C0072DD0304968680839012846
:1024000012D0022813D0032811D0096889070029A7
:102410002DDA216821F0030101432160FFF78CFDD3
:10242000814641F2883A0EE009688903EFE70968BE
:102430008901ECE7FFF780FDA0EB0901514502D9C6
:102440000320BDE8F0872068696800F00C00B0EB5D
:10245000810FEFD1D8F80010404601F00701B142DA
:1024600007D90770006800F00700B04201D00120D2
:10247000E7E72878400705D52068E96820F4E050B0
:10248000084320602878000706D52068296920F4D1
:10249000604040EAC100206000F02EF82168084A40
:1024A000C1F30311515CC840064908600648006842
:1024B000FFF7FAFE0020C4E7003C02400838024063
:1024C0000ACB02081C00002014000020014800680C
:1024D000704700001C000020044805490068096896
:1024E000044AC1F38221515CC84070471C0000209F
:1024F000083802401ACB0208154810B5006810F0E1
:102500000C02144813D04110042A0FD0082A0ED10F
:102510000F4C241F2268236802F03F025B0207D59C
:102520002068C0F38810A0FB010106E0084610BD3A
:102530002168C1F38811A1FB00010023FDF7E0FE33
:102540002168C1F30141491C4900B0FBF1F010BD05
:10255000083802400024F4002DE9F84F04006ED042
:102560002078DFF84C93C007A9F104054AD009F19F
:1025700004000168C1F38101012908D00068C0F39B
:10258000810002280AD1D9F80000400206D5286847
:10259000800337D560680028E1D033E06068B0F58B
:1025A000803F10D0B0F5A02F286810D020F48030E4
:1025B0002860286820F4802028606068A8B1FFF7B0
:1025C000BBFC06460DE0286840F48030F4E740F498
:1025D00080202860F7E700BFFFF7AEFC801B64286F
:1025E00073D828688003F7D50CE0FFF7A5FC0646F2
:1025F00005E000BFFFF7A0FC801B6428F0D8286826
:102600008003F7D42078DFF8AC8280074FF0000A0F
:102610003ED5A748001D016811F00C0F08D00068D6
:10262000C0F3810002280BD1D9F80000400207D482
:102630002868800716D5E068012800D112E033E150
:10264000E068B8B10120C8F80000FFF775FC064645
:1026500005E000BFFFF770FC801B0228C0D8286887
:102660008007F7D52868216920F0F80040EAC1000A
:1026700028600DE0C8F800A0FFF75EFC064604E005
:10268000FFF75AFC801B02281FD828688007F7D460
:102690002078000722D5864F87486169703771B16D
:1026A00001210160FFF748FC064604E0FFF744FC07
:1026B000801B022809D838688007F7D50EE0C0F8DB
:1026C00000A0FFF739FC064605E082E0FFF734FC86
:1026D000801B02287DD838688007F7D4207840070F
:1026E00068D5DFF8CCB100270BF13C0BDBF800001C
:1026F000C0000BD4DBF8001041F08051CBF8001083
:10270000DBF80000012700F0805000906B4E30682D
:10271000C00510D4306840F480703060FFF70CFCC6
:10272000009005E0FFF708FC0099401A022850D8F5
:102730003068C005F6D55E4EA0686C3601280FD013
:102740000528306810D020F001003060306820F09B
:1027500004003060A068B8B1FFF7EEFB00900FE016
:10276000306840F00100F4E740F004003060F7E723
:10277000FFF7E2FB0099411A41F28830814266D8A6
:1027800030688007F4D50EE0FFF7D6FB009007E035
:10279000FFF7D2FB0099411A41F28830814256D8A6
:1027A00030688007F4D42FB1DBF8001021F080519D
:1027B000CBF80010A069C8B33D49091D0968C1F3F1
:1027C000810102294AD00228504607D0C8F860008B
:1027D00000E03CE0FFF7B0FB04463BE04746C8F8AA
:1027E0006000FFF7A9FB064605E000BFFFF7A4FB6A
:1027F000801B02282BD828688001F7D4D4E9070170
:102800000843A16A2E4A490802EB0141626A41EA83
:102810008211084394F82C1040EA0161C9F80010B5
:1028200001203866FFF788FB044606E03EE000BF63
:10283000FFF782FB001B022809D828688001F7D522
:1028400034E000BFFFF778FB001B022802D9032009
:10285000BDE8F88F28688001F4D427E00128F7D07C
:10286000D9F80000E26900F4800191421CD1226A8B
:1028700000F03F01914217D147F6C071626A0140F2
:10288000B1EB821F10D1A26A4FF0FF3300F4403148
:1028900003EB5202B1EB024F06D194F82C1000F07A
:1028A0007060B0EB016F01D00120D1E70020CFE7CD
:1028B0000438024000004742800E4742007000404A
:1028C0000000FFFF70B5040009D0606A002540B128
:1028D00025616561A56294F8510040B10CE00120CA
:1028E00070BD6068B0F5827FF4D0E561F2E784F8EE
:1028F0005050204600F044F8022084F8510020682F
:10290000016821F040010160A088218900F48270F3
:1029100001F404410843A18901F400610843217CCA
:1029200001F002010843217D01F001010843218BE0
:1029300001F400710843217F01F03801084394F845
:10294000201001F080010843218D01F4005108435B
:1029500021680860A069042101EA104094F824105D
:1029600001F010010843216848602068C16921F422
:102970000061C1616565012084F85100002070BDCF
:10298000F0B587B0044614216846FDF7DBFE1C490C
:102990002068884232D11B480024016841F48051EC
:1029A0000160006800F480500590164814380168F2
:1029B00041F001010160016801F001010591016828
:1029C00041F0020101600068022500F0020005905C
:1029D0006020CDE9000502AA0326052782E8D00081
:1029E00069460948FFF7AAF92020CDE9000502AAA7
:1029F000694682E8D0000548FFF7A0F907B0F0BDAE
:102A0000003001404438024000000240000402400F
:102A100010B5401EB0F1807F01D3012010BD4FF0F2
:102A2000E02460610F21601700F0A7FC0020A06186
:102A300007202061002010BD7047704770B590F8E6
:102A40003C20012A32D0012480F83C40022280F848
:102A50003D2003685A689D6822F070060A68324378
:102A60005A60134B02689A4214D0B2F1804F11D0D1
:102A7000104B9A420ED0104B9A420BD00F4B9A42F9
:102A800008D00F4B9A4205D00E4B9A4202D00E4B03
:102A90009A4204D1496825F080031943916080F877
:102AA0003D40002180F83C10084670BD022070BDFA
:102AB000000001400004004000080040000C0040FD
:102AC00000040140004001400018004010B504001F
:102AD00003D094F83D0010B107E0012010BD0020A4
:102AE00084F83C00204600F01FF8022084F83D00E6
:102AF000211D206800F0C6FB012084F8460084F800
:102B00003E0084F83F0084F8400084F8410084F8D7
:102B1000420084F8430084F8440084F8450084F8B7
:102B20003D00002010BD000008B500680B49884238
:102B300012D10B48016841F01001016000680022C9
:102B400000F01000009011463620FFF7F3FBBDE8BF
:102B500008403620FFF7E0BB08BD00000010004031
:102B600040380240704770B50446006801694FF074
:102B70000005C943890715D4C168C943890711D421
:102B8000E91E0161012020772068806980072046C6
:102B900002D0FFF7E7FF04E000F098F8204600F0CD
:102BA00096F8257720680169C943490717D4C16899
:102BB000C943490713D46FF0040101610220207753
:102BC0002068806910F4407F204602D0FFF7CAFFDA
:102BD00004E000F07BF8204600F079F825772068C3
:102BE0000169C943090716D4C168C943090712D44A
:102BF0006FF008010161042020772068C069800718
:102C0000204602D0FFF7AEFF04E000F05FF8204658
:102C100000F05DF8257720680169C943C90617D41B
:102C2000C168C943C90613D46FF0100101610820BF
:102C300020772068C06910F4407F204602D0FFF75B
:102C400091FF04E000F042F8204600F040F82577BC
:102C500020680169C943C90708D1C168C943C907C8
:102C600004D1891E0161204600F032F82068016914
:102C7000C943090609D4C168C943090605D46FF0E0
:102C8000800101612046FFF7D7FE20680169C94332
:102C9000490609D4C168C943490605D46FF040010B
:102CA0000161204600F015F820680169C9438906D2
:102CB0000BD4C168C943890607D46FF020010161B4
:102CC0002046BDE87040FFF7B8BE70BD7047704742
:102CD00070477047FEE701684A69D24352050FD436
:102CE0006FF480624A61002140F8301F2022427355
:102CF0008173026942F0040202610173012070478E
:102D0000002070472DE9F843044600680D46DDE9D0
:102D1000089701689846164641F4807101604B4659
:102D200000224FF001112046009700F065F848B1ED
:102D300020680068C00502D54FF4007020640320AD
:102D4000BDE8F883216805F0FE0008613B464A466D
:102D50001549204600F084F888B9206841698069E7
:102D600000903A464946204600F0C5F848B1206C2C
:102D7000042804D12068016841F400710160012039
:102D8000DEE7F5B2B8F1010F09D02168300A086119
:102D90003A464946204600F0AEF80028E7D12068C0
:102DA00005610020CCE700000200010070B5164666
:102DB0000D4604460DE02046FFF78DFF08B10120C7
:102DC00070BD681C05D0FFF7B7F8801BA84207D874
:102DD00035B120684069C0434007ECD4002070BD85
:102DE000002044F8300F20216173A073216941F065
:102DF000200121612073E2E72DE9F0471E4690464D
:102E00000D460446C1F30747DDF8209008E0701C2A
:102E100006D0FFF791F8A0EB0900B0420FD876B1C9
:102E20002068012F18D0806925EA00000004000CFA
:102E300014D000214145EAD00020BDE8F0870020F1
:102E400044F8300F20216173A073216941F0200103
:102E5000216120730120F0E74069E5E70121E9E7FE
:102E60002DE9F0479A4691460E46044600254FF05C
:102E70002008C1F3074725E020684069C0434005AA
:102E800014D42068016841F40071016021686FF476
:102E900080604861256384F83D8084F83E50206C52
:102EA00040F00400206484F83C501FE0B9F1FF3F7B
:102EB00008D0FFF741F8A0EB0A0149450CD8B9F159
:102EC000000F09D02068012F13D0806926EA000086
:102ED0000004000C0BD0CFE744F8305F84F80D807D
:102EE000A573206940F02000206125730120BDE812
:102EF000F0874069EAE770B516460D4604460DE0D6
:102F00002046FFF7E8FE08B1012070BD681C05D01F
:102F1000FFF712F8801BA84207D835B12068406936
:102F2000C0430006ECD4002070BD002044F8300FF0
:102F300020216173A073216941F020012161207378
:102F4000E2E7000010B504490448FEF7CBFA024955
:102F5000491E087010BD00002D020020180200203C
:102F600070B586B014216846FDF7ECFB22480024BA
:102F7000016841F080010160016801F08001059164
:102F8000016841F004010160016801F0040105914C
:102F9000016841F001010160016801F00101059142
:102FA000016841F010010160016801F01001059114
:102FB000016841F0020101600068104E00F002005B
:102FC0004FF480450590002229463046FEF7AEFFBB
:102FD0001020CDE90004694609480294FEF7AEFED0
:102FE00001200095CDE90104694630460394FEF7BF
:102FF000A5FE06B070BD000030380240001002404F
:10300000000002400D4810B50B4901600C494160B9
:1030100000214FF480428160C0E903124161816167
:10302000C1610162FEF78EFF002803D0BDE81040A9
:10303000FEF756BA10BD000000540040F002002018
:10304000A0860100FEB5394CC023A8212370617011
:103050007B22A2700B20E070251DFF202870687075
:10306000A87000272E1DEF7033707170B2700120B0
:10307000F0701FF0B7F92068E17803BA0A0603F48C
:103080007F4342EA032203BA00BA03F47F030843F2
:1030900042EA1322A4F10C0142EA10600860286899
:1030A000E97803BA0A0603F47F4342EA032203BA2B
:1030B00000BA03F47F03084342EA1322A4F1080193
:1030C00042EA106008603068F17803BA0A0603F437
:1030D0007F4342EA032203BA03F47F0300BA42EAC1
:1030E0001322084342EA1060211F231F0860104882
:1030F00010490097CDE901101A1F111F0E4820F04A
:10310000EBF80D4820F0FAFA0B4890F82D00400734
:10311000094802D520F050FB01E020F0F5FA03B099
:103120000649BDE8F040044820F042BB40020020C0
:1031300049E10008E5E20008A4C1002079E30008A5
:103140000F4810B50D4901604FF4827141600021B4
:103150008160C1604FF400720161C0E90512C16174
:103160000162416281620A21C162FFF7ABFB002864
:1031700003D0BDE81040FEF7B3B910BD00300140E8
:10318000440300201CB500240E4800940C4901940F
:103190000160A721C0E9011440F2E7318461C160F8
:1031A000FFF794FC08B1FEF79BF9009469460548C7
:1031B0000194FFF743FC002801D0FEF791F91CBDF4
:1031C000001000409C030020FEE7FEE770477047B8
:1031D000FFF748B830B593B030216846FDF7B2FA32
:1031E00014210CA8FDF7AEFA1D480025016841F036
:1031F00080510160006800F080501190194801680A
:1032000041F4804101600068022400F48040119084
:1032100001200090000401908001CDE9064008AA39
:103220000420A82182E813000B906846FFF794F968
:1032300008B172B6FEE70CA90F2081E831004FF407
:10324000A0500F904FF48050109005210CA8FFF76C
:10325000A3F8002801D072B6FEE713B030BD00001D
:1032600040380240007000400248016841F470019B
:103270000160704788ED00E00148FFF774BC000072
:103280009C030020F0B50268254C264D264E274FA2
:10329000274B4FF0804CA04209D0604507D0A84290
:1032A00005D0B04203D0B84201D0984204D122F0F8
:1032B000700E4A6842EA0E02A0421BD0604519D047
:1032C000A84217D0B04215D0B84213D0984211D0BE
:1032D000184DA8420ED0184DA8420BD0174DA84249
:1032E00008D0174DA84205D0164DA84202D0164D61
:1032F000A84203D122F44075CA682A434D6922F0DE
:1033000080022A4302608A68C2620A688262A0421E
:1033100001D0984201D10969016301214161F0BDE9
:10332000000001400004004000080040000C004084
:1033300000040140004001400044014000480140B9
:1033400000180040001C00400020004002480121FD
:1033500001700078704700001402002001207047BF
:10336000002070470248012101700078704700007A
:103370001402002000207047FEE70907090E00280C
:1033800004DB00F1E02080F80014704700F00F002B
:1033900000F1E02080F8141D704770B50446002548
:1033A0006FF02F0608E02068411C2160007805EBD3
:1033B000850106EB410145182068007800F004F80B
:1033C0000028F0D1284670BD3038092801D80120E6
:1033D000704700207047000010B54021074801F0F9
:1033E00043F900221E2106481EF020FB054CA06078
:1033F00002F0F4F80020207010BD0000E40E002060
:1034000085560008A001002070B5B1F90030B2F96E
:103410000040A34200DC23460380B1F90250B2F918
:103420000240A54200DD2C464480B1F90460B2F9A7
:103430000450AE4200DA35468580B1F90610B2F983
:103440000620914200DB1146C1800120AB4201DC25
:103450008C4200DD002070BDF8B50D460446B0F981
:103460000000B1F900101646884247DBB4F902109B
:10347000B5F90220914241DBB4F90410B5F90420FA
:1034800091423BDCB4F90610B5F90620914235DCD7
:1034900096B3ADF800006088ADF802003246694688
:1034A000284600F099F8002827D0A088ADF8000041
:1034B0006088ADF8020032466946284600F08CF874
:1034C00000281AD02088ADF80000E088ADF802008E
:1034D00032466946284600F07FF800280DD0A088C3
:1034E000ADF80000E088ADF8020032466946284693
:1034F00000F072F8002800D00120F8BD0020F8BDCF
:10350000B0F90020B1F904309A4213DCB0F904207C
:10351000B1F900309A420DDBB0F90220B1F9063062
:103520009A4207DCB0F90600B1F90210884201DBCB
:103530000120704700207047F8B50D460446B0F9E9
:103540000400B1F900101646884243DBB4F90600C6
:10355000B5F9021088423DDBB4F90000B5F904105A
:10356000884237DCB4F90210B5F90620914231DC0B
:1035700076B3ADF800006088ADF8020032466946C7
:10358000284600F029F818BBA088ADF80000608834
:10359000ADF8020032466946284600F01DF8B8B979
:1035A0002088ADF80000E088ADF802003246694698
:1035B000284600F011F858B9A088ADF80000E0885E
:1035C000ADF8020032466946284600F005F808B119
:1035D0000020F8BD0120F8BD2DE9FC4114460E463F
:1035E000B1F90020B0F9001005468A423ADBB5F97E
:1035F0000400824236DCB6F90270B5F90220974227
:1036000030DBB5F906309F422CDC002C75DD401A0A
:103610009A1A401C521C00B212B200EBD07002EB9E
:10362000D27240105210904200DB1046844200DDFE
:103630000446ADF80010288800222044ADF80400AC
:103640006888ADF80200688831462044ADF806006D
:103650006846FFF7C1FF40B1BDF804002044ADF853
:1036600004003FE00020BDE8FC81E8880022001B48
:10367000ADF80200E888ADF8060031466846FFF76D
:10368000ABFF28B1BDF804002044ADF8040011E000
:10369000A8880022001BADF80000A888ADF804003F
:1036A00031466846FFF798FF50B1BDF80000001B97
:1036B000ADF80000BDF80200001BADF8020016E0F6
:1036C0006888ADF80200688800222044ADF8060042
:1036D00031466846FFF780FF70B1BDF80000001B5F
:1036E000ADF80000BDF806002044ADF806003146F4
:1036F00068461BF0E9FCB6E7FFE70120B3E710B529
:10370000B1F90040B2F900309C4200DA2346038050
:10371000B1F90240B2F902309C4200DA23464380FC
:10372000B1F90440B2F904309C4200DD23468380A5
:10373000B1F90610B2F90620914200DC1146C180B1
:1037400010BD2DE9FF4F87B01D46DDE91476DDF889
:1037500058908B46022E45D3002F43D001F0D0F96C
:10376000804612F0C7F900F11004D0F808A0D8F88C
:103770000000C16A01B188475A4604A80799FFF7BB
:1037800043FE00282ED06088404202B2208840428A
:1037900001B204A810F0ECF9BDB1D8F80000007C2B
:1037A000000712D4BDF81400BDF81010401A401CD8
:1037B00001B2002007E02A5C802A01D9FF2200E044
:1037C00000222A54401C8842F5DBD8F80000C0696A
:1037D00058B1CDE90065029704AA51462046099BDD
:1037E0000BF00CF90BB0BDE8F08FB9F1000F0AD067
:1037F00001A8009680E8A00204AA51462046099B31
:103800000AF03EFFEEE7CDE90065029704AA5146B3
:103810002046099B0AF0B8FFE4E72DE9FF4F87B087
:103820001D46DDE91476DDF858A09146022E54D3EA
:10383000002F52D0014605A8089AFFF7E5FD0028A1
:103840004BD001F05DF9804612F054F900F11004FC
:10385000D0F808B0D8F80000C16A01B18847BDF8B7
:1038600014002188401A01B2ADF81410BDF81600FA
:103870006288801AADF81600BDF818002288801AF8
:1038800000B2ADF81800BDF81A206388D21AADF85E
:103890001A209DB1D8F80020127C12070ED4401ACD
:1038A000401C01B2002007E02A5C802A01D9FF22D7
:1038B00000E000222A54401C8842F5DBD8F80000C2
:1038C000C06968B1CDF800900397CDE9016505AAFC
:1038D00059462046089B1EF083FF0BB0BDE8F08FD1
:1038E000BAF1000F0BD002A805AA80E8A004CDE928
:1038F000009659462046089B1EF0B2FDEDE7CDF834
:1039000000900397CDE9016505AA59462046089B1A
:103910001EF038FEE1E70000F8B506461EF034F868
:103920000025274C07460095F068606030461EF081
:103930004BF9606800691BF071FB6068406908B171
:103940001BF06CFB6068C0691BF068FB6068006A74
:103950001BF064FB6068016979B31BF049FE1BF042
:10396000C5FD6068B0F85411F9B10068007C8007AB
:1039700001D504F0BDF860684FF48071343017F061
:1039800079FC6068202100F59A7017F073FC60687C
:10399000A0F8545138461DF0F1FF009060680068AF
:1039A000036A13B122680099984717F0A5FA00F04E
:1039B00033F8BDE8F84000F005B8A0F85451F8BD60
:1039C0007800002070B50A4D002400BFC4EBC40687
:1039D00055F8260008B117F003FB05EB86001C2103
:1039E00017F048FC641CE4B2042CEFD370BD000057
:1039F000C00F002007490122496807E04B68834255
:103A000002D00B68834200D10A7649690029F5D1BA
:103A1000704700004C00002070470000042101485E
:103A200000F022BED80E00201C21014800F01CBE70
:103A3000F00E00202DE9FF5F0446DDE90E0613B904
:103A4000B0F5807F7ED0B6F900504FF0FF376D4261
:103A5000454307EB25252DB22580B6F902C0CCF1F0
:103A6000000C0CFB00FC07EB2C273FB26780B6F97B
:103A700000C0A1EB0C0141434FF0020C0CEB2121E3
:103A800009B2A180B6F90280A2EB080242430CEB16
:103A9000222000B2E080002B7ED04FF00A0A93FB78
:103AA000FAF5684200EB800003EB400705F10109DD
:103AB00028B21EF0C9F900900FFA89F01EF0C4F97F
:103AC00083465A3528B21EF0BFF9804609F15A00E4
:103AD00000B21EF0B9F90146009AC7F10A0000FBD6
:103AE00002F300FB08F00BFB073301FB070193FB1C
:103AF000FAF291FBFAF04FEA601AB4F90010B4F947
:103B000002000AFB01FCCDF80CC05511378805FBFB
:103B100010C207EBA2220FFA82F905FB01F2BB46A5
:103B2000029277880AFB002107EBA1210BB2B4F9BE
:103B30000410BE460AFB01FC05FB10C20BEBA222DF
:103B400016B200E02FE005FB01F7CDE9007CB4F9E7
:103B50000680DDF80CC00AFB007005FB18C1DDF81B
:103B600004C0009F05FB18C5029A0AFB087C0AFBEB
:103B700008220BEBA1210EEBAC270EEBA02009B223
:103B80000EEBA2220BEBA5250FFA87FC00B212B2B6
:103B90002DB24F46494500E00EE000DA0F46B5422F
:103BA00016DAA84615E000202080491E6080A1801A
:103BB000521EE280BDE8FF9F32882A44228072882C
:103BC0003A44628032881144A180718808444FE0F1
:103BD000B046474504DA4F46494506DA0F4604E049
:103BE000B54201DA2F4600E0374627804F46494567
:103BF00000DD0F46B54201DDA84600E0B04647456E
:103C000003DD4D46494505DC01E0B54201DD2946AD
:103C100000E03146A1809A4201DA154600E01D46D7
:103C2000844501DA614600E001468D4205DA9A4298
:103C300001DA114606E0194604E0844501DA6146DE
:103C400000E0014661809A4201DD114600E019461C
:103C5000844501DD654600E00546A94205DD9A423E
:103C600001DD104604E0184602E0844500DD6046B0
:103C7000E0809FE72DE9FC5F0446D0F800B0B0F982
:103C80000800E589081AB4F90A10511AD4E9092381
:103C9000B5F5807F36D0A589002DA56B05FB00F01A
:103CA0003ED04D4369114611256BE06A05FB06F7CE
:103CB00000FB1177704305FB010002EBA72903EB22
:103CC000A020B4F904104FEA292706128046B94211
:103CD00048DD002F46DBB4F90600B04242DD002E7D
:103CE00040DB94F8340042073FD5820704F114000A
:103CF0001CD401FB0675012292460BEB050117F05F
:103D00006FFA22E0256BE66A05FB00F706FB1177E8
:103D1000464305FB016002EBA70903EBA000D0E7D7
:103D20004D4302EB601903EB6510CAE701FB067116
:103D30004D004FF0020A0BEB0501012217F050FA7B
:103D4000A81C584410F8010C607594F83400C007A2
:103D50001ED00022FF21104611F03FFB217DC0B292
:103D6000814215D10020BDE8FC9F32B204F1180059
:103D70002369CDE90002002539B2AA468B4614F02A
:103D8000FDFC2075DDE90002594614F091FCDBE7EB
:103D9000A07C78B1A4F83C90A4F83E80A4F84070D0
:103DA000A4F84260656484F848A02046BDE8FC5F42
:103DB00000F002B80120D6E72DE9F04F044690F854
:103DC0003C10D0F8009090F83E0087B04FF0FF36DE
:103DD000702907DAB4F940203546012A00D50025BC
:103DE00080310DE0902916DDB4F94020B4F904309B
:103DF0000125521C9A4200DB0025A1F27F114942A5
:103E0000C9B28846702809DAB4F94210012900D5F0
:103E10000026803010E00025FF21F2E790280DDD1C
:103E2000B4F94210B4F906200126491C914200DB86
:103E30000026A0F27F104042C7B201E00026FF2713
:103E400060690090607D0590002083468246049062
:103E500094F83400400744D594F84810606C11FB86
:103E600005014944012201A817F0BAF9A08894F885
:103E7000481010FB01F0616C012206FB001149445F
:103E800002A817F0ADF9A18894F8480011FB00F1E1
:103E9000626C06FB012210FB05901118012203A899
:103EA00017F09EF994F83400800761D594F8480023
:103EB000626C10FB052300EB09010B4413F8013C75
:103EC0000493A38813FB00F306FB0322114411F8AB
:103ED00001BC10FB0500111801EB090010F8010CE2
:103EE00045E0B4F84000B4F94220284401B204F19E
:103EF00018008146236914F041FC0190B4F8420097
:103F0000B4F94010304402B254F8103F484614F05F
:103F100035FC0290608E2368304402B2208E284423
:103F200001B2484614F02AFC039094F82400103C97
:103F300080071DD5B4F9422034F8400F284401B25F
:103F4000484614F0B5FB04906088B4F90010304482
:103F500002B2484614F0ACFB83466088304402B29B
:103F600034F84009284401B2484614F0A1FB8246C7
:103F700094F8340042464546800735D5059810FB35
:103F800008F30499C8F1FF0011FB0031C1F30721C8
:103F90001BFB08F61AFB0060C0F3072011FB07F3B8
:103FA000C7F1FF0610FB06331B0A6375022907D809
:103FB000022803D8002007B0BDE8F08F002702E0F8
:103FC000022800D8FF270598022800D8002204986C
:103FD000022800D8FF22BBF1020F00D80025BAF159
:103FE000020F03D8FF2501E0FF206075CAB1FF2A48
:103FF00019D0DDE9000111F00EFA0646ADB1FF2D32
:1040000015D0DDE902012A4611F005FA014687B113
:10401000FF2F10D03A46304611F0FDF920750120EF
:10402000C9E7019EEAE7009EE8E70399EFE70299F6
:10403000EDE72175F3E72675F1E700002DE9F0477C
:104040000446B0F908000A2700026062B4F90A00C9
:104050000002A062B4F90C1091FBF7F5684200EB86
:10406000800001EB4006684205F1010800B21DF036
:10407000EBFE8246E84300B21DF0E6FE8146C5F144
:104080005A0000B21DF0E0FE0546C8F15A0000B229
:104090001DF0DAFEC6F10A0101FB0AF3024609FB34
:1040A0000630694390FBF7F002FB061191FBF7F134
:1040B0004011E06248112063607C14F000FC94F829
:1040C000341060F3000184F83410607C14F0E7FBD6
:1040D00094F8341060F3410184F83410607C0428B3
:1040E00024D0052822D0062820D021F0040100BFCA
:1040F00084F8341021682162A16921F0E00160F3A5
:104100000401A08860F39421E08860F35F51A1610D
:10411000E0894FF4001101EB5001B1FBF0F0A06316
:10412000FF206075207C2075BDE8F08741F0040118
:10413000DEE700002DE9F04115460E460746114C1A
:104140001DF022FC80462B4632463946204614F0AC
:1041500021FF20B10020A062E06950B110E02C21C5
:10416000204617F087F84FF00040A0620020BDE81D
:10417000F08140461DF002FCE06108B90120E061D9
:104180002046F4E7140F002010B51421074800F072
:104190006BFA14F0C5FE40B1054901600549416064
:1041A000054981600549C16010BDFEE7FC0E002095
:1041B00085890108DD8C0108418E010851890108BB
:1041C00070B50D4604461021284617F053F82068B4
:1041D0000078012804D0022807D0042807D008E07E
:1041E000208A2880608A688003E0E06800E00A2076
:1041F000686020684268002A03D02946BDE8704004
:10420000104770BDFEB5866A0446BEB9A08A218AF1
:104210000844A082E08A618A0844E08220460AF0CD
:1042200055FC060079D020460DF008F8002209213F
:10423000304613F02DFF607880076ED4208A10B9C5
:10424000608A002869D00025ADF80450ADF8085008
:1042500094F83C0000F00F000328304616D018F008
:1042600059FB0746304618F013FA03460C2000901D
:10427000B4F912103A46304609F0E0F8ADF80800FB
:10428000304618F055FAC10712D017E018F0D8FAE6
:104290000746304618F074FA024603200090B4F93D
:1042A00010103B46304609F0C9F8ADF80400E7E7C6
:1042B000BDF90410002901DDADF80450810705D4D3
:1042C000BDF90410002901DAADF80450410705D406
:1042D000BDF90810002901DDADF80850000705D42C
:1042E000BDF90800002801DAADF8085002AA01A9BA
:1042F000204621F040F80023BDF90820BDF9041044
:1043000030461AF079FAA08ABDF804100844A08259
:10431000E08ABDF808100844E082FEBD2DE9FC5F8C
:104320000446806A5FEA000B71D094F83C000007F5
:104330006DD015F0BFF9019000684021457E5846C8
:1043400019F073FA4FF0000818B9A4F81A80A4F80D
:104350001880584618F0D0FA8246584618F0D3FA1A
:10436000064694F83C004FF0640900F00F000C285A
:1043700002D003284CD09AE0A4F8188056B1B4F9C2
:104380001A50002715F096F900684946407EC0F1A2
:10439000640022E0608BC5F1640110FB01F191FB28
:1043A000F9F06083584618F073F90546584618F03E
:1043B000B1FA02460C200090B4F91A102B46584668
:1043C00009F03CF86083024600231EE07A1917B218
:1043D00010FB05F292FBF1F215B2002DF6D1ADF80B
:1043E0000070A4F81A806A460021204620F0C3FF1E
:1043F00041F6FF72BDF90030514258460AF0BEFC4A
:10440000BDF800100123084402B200214CE09AE0FC
:10441000A4F81A80BAF1000F0AD0B4F91850002796
:1044200015F048F900684946407EC0F1640022E07A
:10443000208BC5F1640110FB01F191FBF9F02083A1
:10444000584618F09DF90546584618F0F9F9034604
:1044500003200090B4F918102A46584608F0EEFFE1
:104460002083014600231EE07A1917B210FB05F2E3
:1044700092FBF1F215B2002DF6D1ADF80070A4F860
:10448000188000226946204620F075FF41F6FF7231
:10449000BDF90030514258460AF0EAFBBDF8001061
:1044A0000123084401B2002258461AF0A5F9208BD6
:1044B000002848D1608B002845D1C6B9584618F06D
:1044C00029FA0546584618F0E3F8002D06DC0028C6
:1044D0000DDD002D02DA01232A4604E0002806DA69
:1044E0000123404202B2002158461AF085F9BAF180
:1044F000000F19D1584618F043F90546584618F0F0
:104500009FF9002D07DC00280EDD002D03DA0123C2
:104510000022294605E0002806DA01230022404255
:1045200001B258461AF068F90A215846019A13F068
:10453000AFFD6078800706D414F83C0F20F00F0020
:10454000207044F8148CBDE8FC9F00007FB50E4637
:10455000040003D111F0BAFA040023D00025FEB103
:10456000ADF80050ADF8025011F0C8FA401EADF899
:104570000400204611F008FB401EADF806006A4614
:10458000314602A8FEF740FF00280BD02068017CCE
:10459000890708D5DDE90001C4E90D0101202AE001
:1045A000A0F854517FBD82690AB102A99047002644
:1045B0000BE000BF04EBC601002202A83431FEF775
:1045C0004BFF0028EED1761CB6B2B4F85401B042CD
:1045D000F0D880B2202804D204EBC00002A9343005
:1045E00004E0A4F8545104F1340069460FF024FAB1
:1045F000B4F85401401CA4F8540160681DF0F0FAAE
:104600007FBD70B5054600F012F804460CE0214667
:10461000284600F01EF806462146284600F071F8AC
:10462000204616F0DDFC3446002CF0D170BD002889
:1046300000D04068704700B503460022FFF7F7FF3F
:1046400003E01846521C00F004F80100F9D11046AE
:1046500000BD0068091D4058704700684058704709
:10466000002800D08068704700224260C91C21F0F9
:10467000030182600160704770B50446006808302D
:1046800016F024FC050013D00146002220461FF03E
:10469000E9F82946204662681FF0DEF8616819B122
:1046A0002A4620461FF0DEF86560A06800B9A560C4
:1046B000284670BD70B504460068083016F006FC48
:1046C000050013D00146002220461FF0C5F82946F8
:1046D0002046A2681FF0C6F8A16819B12A462046F4
:1046E0001FF0BAF8A560606800B96560284670BD23
:1046F00028B1416809B9806808B1002070470120DD
:10470000704770B504000DD0FFF791FF002288427A
:10471000204608D1FFF79DFF6060011E01D00022F6
:104720001EE0A26070BDFFF79BFF8842206808442E
:104730000AD10168A16029B12046BDE8704000227D
:104740001FF08AB8626070BD05682046FFF781FFE0
:1047500006460246294620461FF07EF82A46314684
:104760002046BDE870401FF07DB810B504460068D3
:1047700082680AB12146904720680068002801D06D
:104780002060F5E710BD8068002801D0B0F9160060
:10479000704700002DE9F047074690B0408C189E06
:1047A00040F00400788490463A8499468A463289DB
:1047B000384618F0B5FE0546A7F8209032895146D4
:1047C000384618F0ADFE0446788CA54220F004006F
:1047D000788403D12906B1EB046F68D0A7F8208054
:1047E00032895146384618F09BFE05468046A7F8A8
:1047F0002090514638460BF059FC318900682A4612
:104800001CF050F83089602823D147F6FF794D45D8
:1048100001D04C451DD1384618F0BEFF00EBD070DA
:104820004510384618F0B8FF00EBD0704010C8456E
:1048300006D1691C431C994200DA00E019468846FB
:104840004C4506D1691C421C914201DA6C1C00E007
:1048500014461948FFF710FF05002BD02F60C5E95B
:1048600003843089A8806846C5F808A00EF0ECFBE8
:104870001248FF21CDE900501148029011480390E1
:1048800000200790CDE9080130880A9070889DF8D3
:104890003E1040420B90F0680690002060F300014B
:1048A0008DF83E103069059068460EF05BFC10B044
:1048B000BDE8F087FEE70000080F00203DC50208B4
:1048C00005C7020861C6020814210148FFF7CCBEE3
:1048D000080F00202DE9FC5F002592468B46064616
:1048E0002C46042743F60F0843F60E0900E100BFEB
:1048F000F16807EBC400085882017DD480B230EA29
:104900000B0212D05FF0000230EA0A000FD0002044
:10491000824271D051F8340001AA41F61001009092
:104920001BF0D4FD002868D103E00122ECE7012050
:10493000EEE701AA41F6110100981BF0C7FD00281F
:1049400073D101AA41F6120100981BF0BFFD0028A7
:104950006BD101AA41F6130100981BF0B7FD0028A6
:1049600063D101AA41F6150100981BF0AFFD0028A4
:104970005BD101AA41F6140100981BF0A7FDE0BB32
:1049800001AA41F2690100981BF0A0FDA8BB01AA91
:1049900043F20C0100981BF099FD70BB01AA43F291
:1049A0000D0100981BF092FD38BB01AA41F20101F4
:1049B00000981BF08BFD00BB01AA41F20401009896
:1049C0001BF084FDC8B901AA41F2020100981BF056
:1049D0007DFD90B901AA41F2030100981BF076FD1C
:1049E00058B901AA41F2050100981BF06FFD20B9EA
:1049F00001AA41F2060101E079E016E000981BF0FF
:104A000065FD90B901AA41F2320100981BF05EFDEC
:104A100058B901AA414600981BF058FD28B901AACF
:104A2000494600981BF052FD10B10320BDE8FC9FE1
:104A300001AA40F60A0100981BF048FDF0BB01AA4C
:104A400040F60B0100981BF041FDB8BB01AA41469E
:104A500000981BF03BFD88BB01AA494600981BF05B
:104A600035FD58BB01AA40F63C0100981BF02EFD15
:104A700020BB01AA40F63D0100981BF027FDE8B9D4
:104A800001AA40F63A0100981BF020FDB0B901AA36
:104A90004FF4046100981BF019FD78B901AA40F6A3
:104AA000450100981BF012FD40B901AA40F64101F2
:104AB00000981BF00BFD08B901AA00E013E040F6D6
:104AC000420100981BF002FD68B901AA40F64301BB
:104AD00000981BF0FBFC30B901AA40F64901009890
:104AE0001BF0F4FC08B1022501E005B90125641CA6
:104AF000708CC0F3C500A0423FF6FAAE284695E799
:104B00000148406870470000780000207047C0F3FB
:104B10000410072800D907207047000010B518219D
:104B20000348FFF7A1FD03490120087010BD0000F4
:104B3000B40E0020C40100202DE9F04190460C463F
:104B4000050015D0FBF768FD0A4F06462146BA68F6
:104B5000284690470446BA682819414690470146BE
:104B6000701A03E06218AA5C2A55641CA042F9D2AC
:104B7000BDE8F081D80100202DE9F041094D9046B3
:104B80000E466A681C46074619469047306020B1B9
:104B900020686A68384400219047C8F80000BDE8E2
:104BA000F0810000D80100202DE9F04788B01D46B3
:104BB000109E9246894604000AD02078002808D02A
:104BC000B9F1000F04D016F0060F10D0002004E059
:104BD000002008B0BDE8F087401C215C0A2904D001
:104BE0000D2902D00029F7D1F3E7401CF1E7B00707
:104BF00001D541F6FF754FF000088DF81480214F64
:104C0000CDF8108022E000BF0498CDF8188028B3BA
:104C10000021039105AA06AB0096CDE9013220449C
:104C20002B46524649461DF039F90699691A0DB2CC
:104C3000B0B104990844049021780A290BD00D29B9
:104C400009D0205C0A2812D00D2810D00498205CCE
:104C500008B1002DD8DC049868B110E00121D8E734
:104C6000049860B97A6804A920469047F3E704984D
:104C7000401C0490EFE77A6804A920469047049806
:104C8000A7E70000D80100202DE9F041174688462B
:104C900006001ED0002F1CD0FBF7BEFC0446384691
:104CA000FBF7BAFC050014D00B4A2C44414692682D
:104CB00030469047411903E0621BB25C3255641ED6
:104CC000A142F9D930442A463946BDE8F04116F0F0
:104CD00093BABDE8F0810000D801002000230278DB
:104CE000232902D0012A0DD00FE02AB10021012A88
:104CF00004D0022A04D008E0012101E0017004E0A0
:104D0000017001E0202902D00123184670470221DA
:104D1000F6E72DE9F0410E46804602460021334673
:104D200008461DF0F5FA04460027401C16F0CEF8A0
:104D3000050008D02F5533464246611C1DF0E8FAA5
:104D40002846BDE8F081FEE72DE9F0471E461446EF
:104D50000D468246DDF8209015E000BF4FEA54086A
:104D600008FB0657394650464A469047002808DD5A
:104D700044F30000C0EB540407EB0605A4F1010462
:104D800001E005DA4446002CE8D12046BDE8F08772
:104D90003846FBE72DE9FC5F9B460CAB8A46814613
:104DA000DDE9116093E81210DDE90F575FEA8078C2
:104DB0004FF030031AD45EB15FEAC07808D000F03B
:104DC0000C0858EA0C0803D0761E01E00B55641C51
:104DD000BC4204D2202CF9D301E00B55641C5FEADD
:104DE000C07803D0B44201D2202CF6D35FEAC06869
:104DF00025D55FEA40580AD44CB1BC4201D0B44238
:104E000005D1641E03D0102D03D1641E04E0102DC3
:104E100002D0022D0AD00EE0850603D4202C1ED22B
:104E2000782506E0202C1AD2582502E0202C16D234
:104E300062250D55641C202C11D20B55641C202CAE
:104E40000DD2BCF1000F01D02D2306E0430701D5A0
:104E50002B2302E0030702D520230B55641CCDE968
:104E600000BAC846154681468B46AA46800714D12B
:104E7000274607E02A46DDE900316D1C2020C446A4
:104E8000E0477F1CB742F5D307E02A466D1C641E3D
:104E9000DDE900311BF80400C047002CF5D15FEAC2
:104EA000897006D409E02A46DDE900316D1C202016
:104EB000C047A5EB0A00B042F5D32846BDE8FC9FE9
:104EC0002DE9F04F8FB099468B46DDE91818DDE9E2
:104ED0001C63DDE91A4792468646002209B923F091
:104EE0001003580507AD00D5C9B1B1FBF4F004FBC0
:104EF0001010C0B20A2801D2303009E05FEA836C9A
:104F000002D54FF0410C01E04FF0610C60440A38CB
:104F1000B1FBF4F1A854521C09B1202AE5D3CDF815
:104F20000880CDE90563CDE90052CDE903474B4642
:104F3000524659467046FFF72DFF0FB0BDE8F08F7F
:104F40002DE9FF4F8FB01CACDDE9239594E80308F1
:104F500020AC94E8C004002450EA010201D125F0FD
:104F600010056A050DF11C0802D550EA010217D0A0
:104F700032463B46FBF7C4F9D2B20A2A01D230329C
:104F800006E0AB0601D5412300E061231A440A3A4A
:104F900008F80420641C50EA010201D0202CE7D359
:104FA000CDE90084CDF808B0CDE90595CDE9036AD7
:104FB0000FAF97E80F00FFF7EDFE13B0BDE8F08FDD
:104FC0009A4200D288547047704700002DE9FF4F85
:104FD00089B005460A9800249246002800D1FE4D6B
:104FE0008FE1252804D02246641C53460A990BE21F
:104FF000491C4FF0000808460C9101782B2919D064
:1050000004DC202919D0232904D119E02D290ED040
:10501000302909D00026C8B2FEF7D6F9B0B10CA8E5
:10502000FEF7BBF906461FE048F001010AE048F030
:10503000020107E048F0040104E048F0080101E043
:1050400048F01001401C88460C90D6E70C9908786F
:105050002A2809D1169840C81690002E02DA48F086
:1050600002087642491C0C910C984FF0000B017815
:105070002E2919D1401C0C9048F480680078FEF766
:10508000A3F920B10CA8FEF788F983460CE00C9A2E
:1050900010782A2808D1169802C81690002900DC3A
:1050A0000021521C8B460C920C9801786C290AD076
:1050B00004DC68290FD06A2919D128E0742929D085
:1050C0007A2914D126E0401C0C90017848F48078AD
:1050D0006C291CD00BE0401C0C90017848F0800833
:1050E000682904D148F04001401C88460C900246D3
:1050F0000078692822D015DC62281FD00DDC252815
:1051000071D050281AD058287FF46DAF16E048F4BB
:105110000071E9E748F48071E6E7632878D06428F5
:10512000F2D10BE0732874D004DC6F2806D070280D
:10513000EAD103E0752801D07828E5D178280DD090
:1051400058280BD070280BD0502809D06F2816D0C3
:10515000622816D00A2128F0100016E0102107E07E
:105160005078102148F48878562804D1521C0C92AB
:105170001078582807D01078502804D006E008216D
:1051800009E0022107E048F02000804610786928F5
:1051900003D0642801D028F00C085FEA485001D5FC
:1051A00028F00108107869281ED064281CD05628E1
:1051B00064D05FEA885072D5169804ABC01D0022F7
:1051C00083E806080292CDE9076820F007005346FD
:1051D000F0E80212CDE900121690224628460A99FC
:1051E000FFF7AEFE89E00AE15FEA885024D5169801
:1051F00004AFC01D20F00703F3E80202169300235A
:1052000087E80A08CDE90768002A03DA012102E0ED
:1052100080E0A6E000210023029119461B1A91416B
:1052200001DA114603E00021404261EB02015346DE
:105230002246CDE90001D1E75FEAC85004D51698AF
:1052400004C80FE0524215E05FEA486003D51698A3
:1052500010F8042B06E05FEA0860F0D5169830F8E5
:10526000042B12B21690CDE9021BCDE90468D00FD1
:10527000002AE7DDCDE9002053461EE01698AAEB90
:10528000040202C816904868006800900A980B68EB
:1052900001192846FFF79AFE04442FE0FFE75FEA72
:1052A000C8500CD5CDE9021BCDE904681698002141
:1052B000534604C8CDE900211690224619E05FEA62
:1052C000486003D5169810F8042B08E05FEA0860E0
:1052D000169803D530F8042B92B200E004C816905B
:1052E0000020CDE90020CDE9021BCDE9046853463A
:1052F000224628460A99FFF7E3FD04460C98401C15
:105300000C900C99087800287FF46BAE54457DD240
:1053100022467DE001275FEA887006D509E0224633
:10532000641C534620200A99A84738467F1CB04287
:10533000F5D316992246641C11F8040B16915346B6
:105340000A99A8475FEA887006D4D7E72246641C0A
:10535000534620200A99A84738467F1CB042F5D30F
:10536000CCE7169850F8049B16904B46BBF1000012
:1053700001D0014601E04FF0FF31484600E0401CFB
:1053800002780AB1491EFAD2C71A5FEA485003D51B
:1053900058465F4500D307465FEA887006D512E09D
:1053A0002246641C534620200A99A84738467F1C91
:1053B000B042F5D307E000BF224609F10109641CA1
:1053C00053460A99A84799F8000040B15FEA48514E
:1053D000F2D5BBF1010B01E0C94F0008ECD25FEA46
:1053E000887006D48AE72246641C534620200A9916
:1053F000A84738467F1CB042F5D37FE706E0224637
:10540000641C534625200A99A84777E7AAF10102B0
:10541000534600200A99A8470DB02046BDE8F08FFA
:1054200010B502004FF000000CD04B1E194200D006
:10543000FEE70A44521E9A43B2F5004F02D20C2AEC
:1054400001D9104610BD0C2010BD08444A1E401E54
:105450009043114200D0FEE7704700002DE9F04173
:105460000F4601210025044641862E460BE01B49CC
:10547000FBF790F910B16D1CADB202E0608E401CDC
:105480006086761CB6B257F8260010B10178002964
:10549000EDD1208EA8421ED0A06A002610B115F0D2
:1054A0009FFDA662E06A10B115F09AFDE662E80081
:1054B00015F00CFDA06238B1680015F007FDE06240
:1054C00018B1A16A11B102E0FEE7FEE7002569000C
:1054D00015F0D0FE2586BDE8F081000000440108EB
:1054E00070B586B000228DF808208DF80C208DF85C
:1054F0001020394C90F83C20142302F00302A578C8
:105500004FF4B476012A23D0022A49D0AA4211D0FE
:1055100010F8265F05EB051505EB4505B5FBF3F522
:105520002570407800EB001000EB4000B0FBF3F07A
:105530006070A27004AA03A8CDE9000201EB41004B
:105540004FF6FF7101EA400002AB627821781AE061
:10555000AA4210D0858C05EB45056D02B5FBF6F52A
:10556000A58090F8270000EB001000EB4000B0FB96
:10557000F3F06070A27004AA03A8CDE90002C9B2DA
:1055800002AB627826E009F03FF89DF80C209DF808
:1055900010009DF808101043084306B0C00970BD04
:1055A000AA4210D0858C05EB45056D02B5FBF6F5DA
:1055B000A58090F8260000EB001000EB4000B0FB47
:1055C000F3F02070A27004AA03A8CDE90002CAB2C9
:1055D000217802ABA088D6E72001002010B5084C46
:1055E000012020700748FFF722F80028A06803D0A8
:1055F000BDE810401CF0F4BABDE810401CF0E4BA5D
:10560000A0010020E40E002010B5044690F83E00F2
:10561000626B810707D4A18F39B1A1F57F43FF3BAE
:1056200015D0491EA187A18F89B90AB181070ED56E
:1056300021461348FFF765F8FFF7D0FFE16809B18D
:10564000204688472046BDE8104015F0C9BCA16B34
:105650004942E162002A11D0810702D4216B4942FC
:10566000E1624110491C61F3410084F83E00616A27
:10567000E069E1616062A06AA262606310BD00003F
:10568000E40E002070B5304D68681CF077F90646CE
:10569000687880F00100687047E00020287094F876
:1056A0003E006978C0F380028A4242D061F38200F2
:1056B00084F83E00E16A8A19030719D4002917DC2F
:1056C000002A15DBC00709D1216939B12046884776
:1056D000E1690144E161616A08446062A16809B15D
:1056E0002046884794F83E0040F0080084F83E00C9
:1056F000E06A8019E06216D4A16A884200DDE162A6
:10570000A169204688470146206A884204D0216268
:1057100062680AB120689047D4E90A01814202DB3D
:105720002046FFF771FF287818B10848FEF77FFF81
:1057300003E021460548FEF78CFF0400ADD11CF0C4
:1057400023F9686070BD0000A0010020E40E002075
:1057500009B219F030BC70B5044640680D4608B176
:10576000FFF7F9FF2268002A04D029462046BDE849
:105770007040104770BD89B20EF0D1B889B20EF0FA
:1057800003B910B50446406882080AD0496821F080
:105790000301091D08446060204600F042F82046DD
:1057A00010BDFEE74068103120F00300884201D3AD
:1057B00001207047002070472DE9FC4705464868E6
:1057C0000C4620F0030001AA69461DF087F8DDE9C8
:1057D000007005EBC71101EB80098046D9F838004D
:1057E00060B164B1C4E9020504F10806C460304642
:1057F0000421FFF72AFE864202D0FEE7FEE7FEE71D
:10580000C9F838400120296900FA07F211432961DB
:1058100005EB870100FA08F04A6902434A61BDE8D6
:10582000FC8710B5044600F087F8046010BD2DE930
:10583000FC4706464FF000000D000090074601901F
:1058400042D00C46E9460DF10408802907D30846EA
:1058500026F063FE411F01208840401E044442465A
:10586000494620461DF03AF8009C092C2CDA06EB3C
:105870008400019A40694FF0FF3101FA02F21040B2
:105880000CD1641C3069A14008401DD026F03DFEBB
:105890000446009006EB8000406978B126F035FEA2
:1058A000034606EBC411019001EB8000876B5FB1EA
:1058B000786820F00300A84201D2FEE7FEE73946EF
:1058C0003046009A1FF092FB3846BDE8FC8710B5C1
:1058D0000446FFF7A6FF416841F00201416060689D
:1058E00040F00100606010BD10B5044600F024F8DF
:1058F000416821F002014160606820F001006060B1
:1059000010BD70B506460D46084600F015F80400B7
:1059100010D02079C0070BD0686880080BD02146D2
:10592000304600F03CF821462846FFF72AFF05469E
:10593000284670BDFEE7FEE7426800F1080122F04C
:105940000300001F0844910800D1FEE7704770B5BE
:1059500006460C004FF000001ED0F2B1207915462B
:10596000C0071BD011462046FFF71CFF78B129461F
:10597000204600F025F805462046FFF752FF6868EC
:10598000294640F0020068603046FFF715FF2046C8
:10599000FFF7AAFF04F1080070BDFEE7FEE77CB543
:1059A000054648680C4620F0030001AA69461CF031
:1059B00095FFDDE90023214628461FF017FB7CBD3B
:1059C0002DE9F0410D46044600F10801281F0E188C
:1059D000606806F1080720F00300401BA0F10408EE
:1059E00038460421FFF731FD874200D0FEE76068AA
:1059F00020F0030108EB0500001D814200D0FEE706
:105A0000307900F0030040EA0800706020F00300E5
:105A10000C2800D2FEE7207900F0030028436060E4
:105A20003046FFF754FF3046BDE8F08138B50446F4
:105A300013F040FE054613F072FE30B1218F204670
:105A4000E18618F065F9012038BD606A002820461B
:105A50001ED011F0EDFF218FE08E81420CD0208707
:105A6000E08E00906A461C21204612F011FB0128AE
:105A7000EAD1204618F04CF9284613F05CFE0428C1
:105A8000E1D1204616F0B2FD002112F0F0FDDAE778
:105A900012F036F9D7E770B512F0F5FA054616F0B0
:105AA000EBFD044628460EF063FD01462046BDE8A6
:105AB000704001221BF096BA30B50020094C0A4B09
:105AC000024600BFD4F8105205B938B1401CC0B22C
:105AD0000228F7D38A731878886030BD0120887354
